{
  "_format": "hh-sol-artifact-1",
  "contractName": "Voting",
  "sourceName": "contracts/Voting.sol",
  "abi": [
    {
      "inputs": [
        {
          "internalType": "string",
          "name": "_name",
          "type": "string"
        }
      ],
      "name": "addCandidate",
      "outputs": [],
      "stateMutability": "nonpayable",
      "type": "function"
    },
    {
      "inputs": [
        {
          "internalType": "uint256",
          "name": "",
          "type": "uint256"
        }
      ],
      "name": "candidates",
      "outputs": [
        {
          "internalType": "string",
          "name": "name",
          "type": "string"
        },
        {
          "internalType": "uint256",
          "name": "voteCount",
          "type": "uint256"
        }
      ],
      "stateMutability": "view",
      "type": "function"
    },
    {
      "inputs": [
        {
          "internalType": "uint256",
          "name": "_index",
          "type": "uint256"
        }
      ],
      "name": "getCandidate",
      "outputs": [
        {
          "internalType": "string",
          "name": "",
          "type": "string"
        },
        {
          "internalType": "uint256",
          "name": "",
          "type": "uint256"
        }
      ],
      "stateMutability": "view",
      "type": "function"
    },
    {
      "inputs": [],
      "name": "getCandidateCount",
      "outputs": [
        {
          "internalType": "uint256",
          "name": "",
          "type": "uint256"
        }
      ],
      "stateMutability": "view",
      "type": "function"
    },
    {
      "inputs": [
        {
          "internalType": "address",
          "name": "",
          "type": "address"
        }
      ],
      "name": "hasVoted",
      "outputs": [
        {
          "internalType": "bool",
          "name": "",
          "type": "bool"
        }
      ],
      "stateMutability": "view",
      "type": "function"
    },
    {
      "inputs": [
        {
          "internalType": "uint256",
          "name": "_candidateIndex",
          "type": "uint256"
        }
      ],
      "name": "vote",
      "outputs": [],
      "stateMutability": "nonpayable",
      "type": "function"
    }
  ],
  "bytecode": "0x608060405234801561001057600080fd5b50610d46806100206000396000f3fe608060405234801561001057600080fd5b50600436106100625760003560e01c80630121b93f1461006757806309eef43e1461008357806330a56347146100b35780633477ee2e146100d157806335b8e82014610102578063462e91ec14610133575b600080fd5b610081600480360381019061007c919061055e565b61014f565b005b61009d600480360381019061009891906105e9565b6102b8565b6040516100aa9190610631565b60405180910390f35b6100bb6102d8565b6040516100c8919061065b565b60405180910390f35b6100eb60048036038101906100e6919061055e565b6102e4565b6040516100f9929190610706565b60405180910390f35b61011c6004803603810190610117919061055e565b6103a0565b60405161012a929190610706565b60405180910390f35b61014d6004803603810190610148919061086b565b6104ae565b005b600160003373ffffffffffffffffffffffffffffffffffffffff1673ffffffffffffffffffffffffffffffffffffffff16815260200190815260200160002060009054906101000a900460ff16156101dc576040517f08c379a00000000000000000000000000000000000000000000000000000000081526004016101d390610900565b60405180910390fd5b6000805490508110610223576040517f08c379a000000000000000000000000000000000000000000000000000000000815260040161021a9061096c565b60405180910390fd5b600081815481106102375761023661098c565b5b90600052602060002090600202016001016000815480929190610259906109ea565b919050555060018060003373ffffffffffffffffffffffffffffffffffffffff1673ffffffffffffffffffffffffffffffffffffffff16815260200190815260200160002060006101000a81548160ff02191690831515021790555050565b60016020528060005260406000206000915054906101000a900460ff1681565b60008080549050905090565b600081815481106102f457600080fd5b906000526020600020906002020160009150905080600001805461031790610a61565b80601f016020809104026020016040519081016040528092919081815260200182805461034390610a61565b80156103905780601f1061036557610100808354040283529160200191610390565b820191906000526020600020905b81548152906001019060200180831161037357829003601f168201915b5050505050908060010154905082565b60606000808054905083106103ea576040517f08c379a00000000000000000000000000000000000000000000000000000000081526004016103e19061096c565b60405180910390fd5b60008084815481106103ff576103fe61098c565b5b9060005260206000209060020201905080600001816001015481805461042490610a61565b80601f016020809104026020016040519081016040528092919081815260200182805461045090610a61565b801561049d5780601f106104725761010080835404028352916020019161049d565b820191906000526020600020905b81548152906001019060200180831161048057829003601f168201915b505050505091509250925050915091565b600060405180604001604052808381526020016000815250908060018154018082558091505060019003906000526020600020906002020160009091909190915060008201518160000190816105049190610c3e565b5060208201518160010155505050565b6000604051905090565b600080fd5b600080fd5b6000819050919050565b61053b81610528565b811461054657600080fd5b50565b60008135905061055881610532565b92915050565b6000602082840312156105745761057361051e565b5b600061058284828501610549565b91505092915050565b600073ffffffffffffffffffffffffffffffffffffffff82169050919050565b60006105b68261058b565b9050919050565b6105c6816105ab565b81146105d157600080fd5b50565b6000813590506105e3816105bd565b92915050565b6000602082840312156105ff576105fe61051e565b5b600061060d848285016105d4565b91505092915050565b60008115159050919050565b61062b81610616565b82525050565b60006020820190506106466000830184610622565b92915050565b61065581610528565b82525050565b6000602082019050610670600083018461064c565b92915050565b600081519050919050565b600082825260208201905092915050565b60005b838110156106b0578082015181840152602081019050610695565b60008484015250505050565b6000601f19601f8301169050919050565b60006106d882610676565b6106e28185610681565b93506106f2818560208601610692565b6106fb816106bc565b840191505092915050565b6000604082019050818103600083015261072081856106cd565b905061072f602083018461064c565b9392505050565b600080fd5b600080fd5b7f4e487b7100000000000000000000000000000000000000000000000000000000600052604160045260246000fd5b610778826106bc565b810181811067ffffffffffffffff8211171561079757610796610740565b5b80604052505050565b60006107aa610514565b90506107b6828261076f565b919050565b600067ffffffffffffffff8211156107d6576107d5610740565b5b6107df826106bc565b9050602081019050919050565b82818337600083830152505050565b600061080e610809846107bb565b6107a0565b90508281526020810184848401111561082a5761082961073b565b5b6108358482856107ec565b509392505050565b600082601f83011261085257610851610736565b5b81356108628482602086016107fb565b91505092915050565b6000602082840312156108815761088061051e565b5b600082013567ffffffffffffffff81111561089f5761089e610523565b5b6108ab8482850161083d565b91505092915050565b7f596f75206861766520616c726561647920766f74656400000000000000000000600082015250565b60006108ea601683610681565b91506108f5826108b4565b602082019050919050565b60006020820190508181036000830152610919816108dd565b9050919050565b7f496e76616c69642063616e646964617465000000000000000000000000000000600082015250565b6000610956601183610681565b915061096182610920565b602082019050919050565b6000602082019050818103600083015261098581610949565b9050919050565b7f4e487b7100000000000000000000000000000000000000000000000000000000600052603260045260246000fd5b7f4e487b7100000000000000000000000000000000000000000000000000000000600052601160045260246000fd5b60006109f582610528565b91507fffffffffffffffffffffffffffffffffffffffffffffffffffffffffffffffff8203610a2757610a266109bb565b5b600182019050919050565b7f4e487b7100000000000000000000000000000000000000000000000000000000600052602260045260246000fd5b60006002820490506001821680610a7957607f821691505b602082108103610a8c57610a8b610a32565b5b50919050565b60008190508160005260206000209050919050565b60006020601f8301049050919050565b600082821b905092915050565b600060088302610af47fffffffffffffffffffffffffffffffffffffffffffffffffffffffffffffffff82610ab7565b610afe8683610ab7565b95508019841693508086168417925050509392505050565b6000819050919050565b6000610b3b610b36610b3184610528565b610b16565b610528565b9050919050565b6000819050919050565b610b5583610b20565b610b69610b6182610b42565b848454610ac4565b825550505050565b600090565b610b7e610b71565b610b89818484610b4c565b505050565b5b81811015610bad57610ba2600082610b76565b600181019050610b8f565b5050565b601f821115610bf257610bc381610a92565b610bcc84610aa7565b81016020851015610bdb578190505b610bef610be785610aa7565b830182610b8e565b50505b505050565b600082821c905092915050565b6000610c1560001984600802610bf7565b1980831691505092915050565b6000610c2e8383610c04565b9150826002028217905092915050565b610c4782610676565b67ffffffffffffffff811115610c6057610c5f610740565b5b610c6a8254610a61565b610c75828285610bb1565b600060209050601f831160018114610ca85760008415610c96578287015190505b610ca08582610c22565b865550610d08565b601f198416610cb686610a92565b60005b82811015610cde57848901518255600182019150602085019450602081019050610cb9565b86831015610cfb5784890151610cf7601f891682610c04565b8355505b6001600288020188555050505b50505050505056fea26469706673582212204698ccea97d77af47291b06a4c81883630c6bf0415a255bbc07f284e56fc354464736f6c63430008180033",
  "linkReferences": {},
  "deployedLinkReferences": {}
}